:0400000080318128A2
:10000800803120007F08F2000330F0007008F30010
:10001800911E7D28911223001908F00078082C3EC3
:10002800860002308700700881000130F807003030
:10003800F93DF03024002C05F0007008C03A031D8B
:1000480029280230F0007008F300F0302C05F00089
:100058007008D03A031D34280230F0007008F3000D
:100068002C08F13A031D3C280230F0007008F30018
:100078002C08F33A031D44280230F0007008F300FE
:100088002C08F63A031D4A28F301F30A2C08F83A1B
:10009800031D5028F301F30A2C08FA3A031D5628C9
:1000A800F301F30A2C08FB3A031D5C28F301F30A59
:1000B8002C08FC3A031D6228F301F30A2C08FE3AC7
:1000C800031D6828F301F30A2C08FF3A031D6E2864
:1000D800F301F30A7308F000F10179087106031DB2
:1000E800772878087006031D7D28F801F901AF010B
:1000F800AF0A72082000FF00090080318328F80148
:10010800F901EE01EF012030840002308500103043
:100118008031FA20200081310529200023080319A5
:100128009A28220821042004031DAB280030A000CF
:100138000030A1000030A20008000130F40074086B
:10014800A3070130A236A10CA00C890BA628FE300B
:1001580022050319C428A1280130F4007408A30754
:100168000130A007003003180130A1070030031840
:100178000130A2070130A236A10CA00C890BBF28C0
:10018800FF3022050319D128B0280130A30201301D
:10019800A035A10DA20D890BCC28A11FC9282318B1
:1001A800DB28FF30A0057F30A105FF30A205031032
:1001B800A30C2308F400F501F6011030F435F50D11
:1001C800F60D890BE2287408A0047508A1047608C6
:1001D800A204240803190800A21708007608750469
:1001E8007404031908008030F606080064008001D2
:1001F8000131890BFB2800348131820702298431BF
:10020800962C2030860002308700BA3084000030F7
:1002180085000830FF0016001A00FF0B0F29240084
:100228002B08B9002A08B8002908B7002808B60022
:10023800F030210099008C0102308D0020008C01E3
:100248008D0123008C018D0124309E0090309D008B
:1002580022009D13083023009F00FF309B00F80107
:10026800F9012400AF0120009112210091160B170B
:100278008B1720000C1555302100AC002C082400E9
:10028800BD000D303D02031CFC293D082100AC00D7
:10029800AD01AC09AD09AC0A0319AD0A2C08553EED
:1002A8002000A500003021002D3D2000A6008C3143
:1002B80069248131200025082400B0002000260888
:1002C8002400B100200027082400B20030082000D4
:1002D800EB00240031082000EC0024003208200044
:1002E800ED009C30E8008730E9003F30EA008431B7
:1002F80096248131200068082400B3002000690892
:100308002400B40020006A082400B5000030200052
:10031800AA00B030AB004130AC0024003308200004
:10032800AD00240034082000AE0024003508200069
:10033800AF0086318C26813120002A082400BA00BB
:1003480020002B082400BB0020002C082400BC003F
:100358003A082000A80024003B082000A900240037
:100368003C082000AA000030A5008030A6004330D9
:10037800A7008F315727813120002508B5002608AE
:10038800B6002708B7008E31D02681312000350805
:100398002100AC0024003D08F43EA03E8600013058
:1003A800870021002C08810024003A082000B500AD
:1003B80024003B082000B60024003C082000B700B9
:1003C8008E31D0268131200035082100AC00240070
:1003D8003D08F43E203E86000130870021002C08AD
:1003E800810001302400BD020D303D020318492967
:1003F800BD0107303D020318222A3D03FF3A153E8E
:100408002100AC0024003D08493E203E8600013012
:10041800870021002C08810024003D08493EA03EA9
:10042800860001308700810101302100AC002C08D2
:100438002400BD0707303D02031C012A2F080319B9
:100448000E2BAF01F0302C052100AC002C08903A9F
:100458000319322ABC2A0C302400AD025C30240077
:100468002D02031C3E2A2F2A0C302100AC002C0838
:100478002400AD070C302D02031C382AAE08031DDA
:10048800792ABD0104303D0203180E2B3D35B23EDA
:1004980086008701403F2100AC00413FAD002400A9
:1004A8002D08F43E203E8600013087002D08F43EDA
:1004B800A03E84000130850021002D080006031DA0
:1004C800672A2C080106031D722A24003D08363EBF
:1004D800860002308700810120008C110130210044
:1004E800AC002C082400BD07462ABD0104303D029B
:1004F80003188D2A3D08363E8600023087008108A1
:1005080003198D2A01302100AC002C082400BD07F6
:100518007A2A04303D0203180E2B2D08F43EA03E23
:1005280084000130850000082100AC0024002D085B
:10053800F43E203E8400013085003D35B23E860001
:1005480087010008C03F21002C08C13F24003D0856
:10055800363E8600023087008101810A3D35BA3E69
:10056800860087010030C03FC13F20008C15C52A96
:10057800F03024002C052100AC002C08803A031927
:10058800CA2A24000E2B0C302400AD025C30240053
:100598002D02031CD62AC72A0C302100AC002C08D7
:1005A8002400AD070C302D02031CD02ABD010430F5
:1005B8003D0203180E2B3D35B23E86008701403FB1
:1005C8002100AC00413FAD0024002D08F43E203E40
:1005D8008600013087002D08F43EA03E84000130DB
:1005E800850021002D080006031DFC2A2C080106A1
:1005F800031D072B24003D08363E86000230870085
:10060800810120008C1101302100AC002C0824004D
:10061800BD07DB2A2400BD0104303D020318222A4D
:100628003D35B23E86008701403F2100AC00413F86
:10063800AD0024003D35BA3E86008701403F2100C9
:100648002C06031D292B413F2D06031D372B2400A3
:100658003D08363E8600023087000108003A03193B
:10066800372B20000C1124003D35BA3E8600870147
:10067800403F2100AC00413FAD0024003D35B23E73
:1006880086008701403F2100AE00413FAF002E08A1
:10069800013EB00000302F3DB1002D083106031D8A
:1006A800572B2C083006031D632B20000C15240043
:1006B8003D35BA3E860087010030C03FC13F240067
:1006C8003D35BA3E86008701013081074131031864
:1006D800810A01302100AC002C082400BD07102B32
:1006E80020005D085C045B04031D812B0030DB00E7
:1006F8008030DC003F30DD0008007230A00031306F
:10070800A1004430A2005B08A3005C08A4005D08B7
:10071800A5008C31B524833103189E2B223020008C
:10072800EE000030EF00FF30DB007F30DC007F3070
:10073800DD00080020005B08A0005C08A1005D083F
:10074800A2004930A3003A30A400C430A5008C317F
:10075800B52483310318BC2B22302000EE00003072
:10076800EF000030DB000030DC000030DD00080066
:1007780020005B08A0005C08A1005D08A200003012
:10078800A3000030A4000030A5008C31B5248331CB
:100798000030031C01302000DE005E08E700670817
:1007A8000319E62B5B08F4005C08F5005D08F60009
:1007B8008031F220833174082000DB007508DC00EA
:1007C8007608DD00AA30AA00B830AB003F30AC0094
:1007D8005B08AD005C08AE005D08AF0086318C2672
:1007E800833120002A08DB002B08DC002C08DD0000
:1007F8005B08CB005C08CC005D08CD008D31C625B8
:10080800833120004B08DF004C08E0004D08E10070
:100818005F08B5006008B6006108B7008E31D026C1
:10082800833120003608E601E6073508E501E507CB
:100838006608A601A6076508A501A5078C316924E5
:10084800833120002508C7002608C8002708C900EA
:100858005B08CA005C08CB005D08CC008C315024D2
:10086800833120004708DB004808DC004908DD0028
:100878005B08C7005C08C8005D08C9000130DE00DD
:100888005E08CA000930CB000030CC008D316A25E3
:10089800833120004708D1004808D2004908D30016
:1008A8006608D501D5076508D401D4078E314B26D3
:1008B800833120005108DB005208DC005308DD00BA
:1008C800670803190800FF30E2007F30E3007F303B
:1008D800E4005D086406031D772C5C086306031DAD
:1008E800772C5B086206031D802C0030DB0000308B
:1008F800DC000030DD0008005B08A5005C08A600ED
:100908005D08A7000030A8008030A9003F30AA0089
:100918008F31572720002508DB002608DC00270830
:10092800DD0008002100A70120006A0869046804A6
:10093800031DBC2C0030A0000030A1000030A20034
:100948006B08A3006C08A4006D08A5008C31B524C1
:100958008431031CB42C21302000EE000030EF005D
:1009680000302000E8000030E9000030EA0008000C
:100978006D086C046B04031DC82C0030E80080303F
:10098800E9003F30EA0008006808A0006908A100F3
:100998006A08A2000030A3000030A4000030A500BF
:1009A8008C31B52484310318342D20006B08B50030
:1009B8006C08B6006D08B7008E31D026843120004F
:1009C80038082100AB00200037082100AA002000C9
:1009D80036082100A900200035082100A8002B08AE
:1009E8002000A80021002A082000A70021002908CB
:1009F8002000A600210028082000A5008C318B24A7
:100A0800843120006D082706031D102D6C0826066A
:100A1800031D102D6B08250603191D2D2130EE002E
:100A28000030EF000030E8000030E9000030EA0054
:100A38000800210028080139A0002008A70020008C
:100A48006808F4006908F5006A08F6008031F220A9
:100A5800843174082000E8007508E9007608EA0087
:100A680020006808D1006908D2006A08D3008731DD
:100A780040278431200051082100A100200052089D
:100A88002100A200200053082100A30020006B08C9
:100A9800AA006C08AB006D08AC00210021082000FA
:100AA800AD00210022082000AE002100230820000C
:100AB800AF0086318C26843120002A082100A4004A
:100AC80020002B082100A50020002C082100A600EA
:100AD80024082000DB00210025082000DC0021007C
:100AE80026082000DD0083317423843120005B0850
:100AF800E8005C08E9005D08EA00210027080319FE
:100B0800080020006808F4006908F5006A08F60083
:100B18008031F22074082000E8007508E9007608A2
:100B2800EA00080020003A08C0003B08C1003C0861
:100B3800C2000310410D420DC3004308C6003D0822
:100B4800C0003E08C1003F08C2000310410D420D1D
:100B5800C3004308C50046080319BE2D45084602D0
:100B68000318C52D4603FF3A4507C0001930400257
:100B7800031CC52D3D08BA003E08BB003F08BC0059
:100B88000800450803190800460845020318D42D33
:100B98004503FF3A4607C000193040020318080011
:100BA8000630C0004008C400BC1BC417BF1B441754
:100BB800BB17FF30BA05FF30BB050030BC05BE17B8
:100BC800FF30BD05FF30BE050030BF0545084602B1
:100BD8000318102E0130BD35BE0DBF0D890BEF2D4A
:100BE8000130C5024508460603190B2E0130C40220
:100BF8004408073903190B2EEE2D0130BC36BB0C07
:100C0800BA0C890B022E0130C0004008C6074608FE
:100C180045060319352E012E460845020318352EC0
:100C28000130BA35BB0DBC0D890B152E0130C6023B
:100C3800450846060319312E0130C4024408073915
:100C48000319312E142E0130BF36BE0CBD0C890B92
:100C5800282E0130C0004008C50746084506031D78
:100C6800272EC41F472EFF30BA06FF30BB06FF30C1
:100C7800BC060130BA07003003180130BB0700304A
:100C880003180130BC07441F592EFF30BD06FF3042
:100C9800BE06FF30BF060130BD0700300318013023
:100CA800BE07003003180130BF07C4013A08BD076A
:100CB8003B08BE3D3C08BF3DBF1F742EFF30BD063C
:100CC800FF30BE06FF30BF060130BD0700300318F5
:100CD8000130BE07003003180130BF07C401C40A41
:100CE8003D08A0003E08A1003F08A2004608C00039
:100CF8004008A3004408C1004108A40080319120A5
:100D080020002008BA002108BB002208BC00080007
:100D180020002A08B0002B08B1002C08B2000310EC
:100D2800310D320DB3003308B400B408031DA32EEF
:100D38000030AA000030AB000030AC0008002D08DD
:100D4800B0002E08B1002F08B2000310310D320D8B
:100D5800B3003308B900B908031DB92E0030AA0042
:100D68000030AB000030AC00080039087B3EB00012
:100D78003008B4072A08B0002B08B1002C08B200CC
:100D88001030B236B10CB00C890BC52E3008B30048
:100D98003308B9002D08B0002E08B1002F08B200A2
:100DA8001030B236B10CB00C890BD52E3008B30018
:100DB8003308B9068030B0003008B905AB17AE1754
:100DC800FF30AD05FF30AE050030AF050030B5008F
:100DD8000030B6000030B7000730B0003008B80067
:100DE8002A1CFC2E2D08B5072E08B63D2F08B73D46
:100DF8000130AC36AB0CAA0C890BFD2E0130AD3599
:100E0800AE0DAF0D890B032F0130B802031DF42E70
:100E18000930B0003008B8002A1C182F2D08B50773
:100E28002E08B63D2F08B73D0130AC36AB0CAA0CE6
:100E3800890B192F0130B736B60CB50C890B1F2F4B
:100E48000130B802031D102F3508A0003608A10094
:100E58003708A2003408B0003008A3003908B100F0
:100E68003108A4008031912020002008AA00210820
:100E7800AB002208AC00080020005108A00052086E
:100E8800A1005308A2000030A3000030A4000030E5
:100E9800A5008C31B524873103185E2F213020003E
:100EA800EE000030EF000030D1000030D2000030FA
:100EB800D30008002000530852045104031D6F2F6B
:100EC8002230EE000030EF000030D1000030D200B8
:100ED8000030D30008000030BA008030BB00BF30BB
:100EE800BC000030AA000030AB004030AC005530E8
:100EF800D4005408F7005108F4005208F5005308CC
:100F0800F6008C31F124873174082000AD00750893
:100F1800AE007608AF0086318C26873120002A087B
:100F2800BD002B08BE002C08BF00853196258731EF
:100F380020003A08D1003B08D2003C08D300FF301B
:100F4800D507FF30D63D5108C7005208C8005308DE
:100F5800C9001F30D4005408CA000830CB00003044
:100F6800CC008D316A25873120004708D100480818
:100F7800D2004908D3005108BA005208BB005308F0
:100F8800BC007230AA003130AB003F30AC005608CC
:100F9800A601A6075508A501A5078C316924873144
:100FA80020002508AD002608AE002708AF008631CE
:100FB8008C26873120002A08BD002B08BE002C088B
:100FC800BF008531962520003A08D1003B08D200A1
:100FD8003C08D3000800F700F601771CF72F7408C7
:100FE800F5007508F6070310F40D0310F70CF70861
:100FF800031DF12F760808000034003480343F3494
:10100800723431343F34FE3475343E3458346334EA
:101018003D3495341D343C34C534AE343A347934D7
:10102800213439349434803437349334A734353404
:1010380056341534343400340034003400348034E9
:101048003F34F034FF34BE34E234A9343E348334C0
:101058007634BE34AE342B343E343C34C334BD34E1
:0C106800D23413343D347834D334BB341C
:1018A00080302000C9064A08BA004B08BB004C082B
:1018B000BC004708BD004808BE004908BF0085318C
:1018C000962520003A08C7003B08C8003C08C9001C
:1018D0000800F7012000A61F742CA509A609A50A77
:1018E0000319A60AF701F70A2508A0002608A10097
:1018F000A2018E30A8002808A3007708A9002908B3
:10190000A4008031912020002008A5002108A60015
:101910002208A70008008E30F70077082000A900F1
:10192000FF3028050319A02C0130A836A70CA60CFF
:10193000A50C890B952C0130F7007708A907902C8E
:101940002508A0002608A1002708A2002908F70002
:101950007708A300A4018031912020002008A50071
:101960002108A6002208A70008002000A21FCC2CF6
:101970002009F4002109F5002209F600F40A0319F0
:10198000F50A0319F60A00307407A0000030753D0F
:10199000A1008030763DA200A51FE22C2309F400AF
:1019A0002409F5002509F600F40A0319F50A0319BC
:1019B000F60A00307407A3000030753DA4008030A3
:1019C000763DA5008030A2068030A50625082202BB
:1019D000031D080024082102031D0800230820021B
:1019E0000800760875047404031D032D770886002B
:1019F00087010030C03FC13F0030F4000030F500E7
:101A00000030F600080076087F392000A000A10110
:101A1000A035A10D7708860087012008C03F210866
:101A2000C13F750D750D0139A000A1017708860031
:101A3000870120088104413121088104770886004C
:101A40008701823081074131FF30813D7F31760847
:101A500080393F38F600F51308002000CA018E30A7
:101A6000C7004708C900C61F422DC309C409C509DC
:101A7000C609C30A0319C40A0319C50A0319C60A09
:101A8000CA01CA0AFF3046050319522D0130C63675
:101A9000C50CC40CC30C890B472D0130C700470887
:101AA000C907422D4308A0004408A1004508A20030
:101AB0004908C7004708A3004A08C8004808A4000E
:101AC0008031912020002008C3002108C400220892
:101AD000C500080020004A088400883085000330D3
:101AE000CD004D08F4004B088731EF278D31840776
:101AF0000318850A003F2000CE00013FCF00023FBF
:101B0000D0004C084B040319BF2D4A0884008830CC
:101B100085000330CD004D08F400FF30CB07FF30C7
:101B2000CC3D4B088731EF278D3184070318850A98
:101B3000003F2000BA00013FBB00023FBC004E083E
:101B4000AA004F08AB005008AC004708AD00480899
:101B5000AE004908AF0086318C268D3120002A085E
:101B6000BD002B08BE002C08BF00853196258D31A5
:101B700020003A08CE003B08CF003C08802D4E08DC
:101B8000C7004F08C8005008C900080020004B08D3
:101B9000F4004C08F5004D08F6005230CE004E0817
:101BA000F7008C31F1248D312000D31FF82D4B0824
:101BB000A0004C08A1004D08A2000030A300003096
:101BC000A4000030A5008C31B5248D310318F02D10
:101BD00000302000CB008030CC00BF30CD000800AA
:101BE00000302000CB000030CC000030CD000800D9
:101BF00000305302153003195202031808004B0835
:101C0000B5004C08B6004D08B7008E31D0268D3196
:101C100020003808C6003708C5003608C40035085B
:101C2000C3008D312D258D3120004308CF0044089D
:101C3000D0004508D1004B08A0004C08A1004D0879
:101C4000A2004F08A3005008A4005108A5008C3141
:101C5000B5248D310318432E00302000BA008030A7
:101C6000BB00BF30BC004F08BD005008BE0051088B
:101C7000BF008531962520003A08CB003B08CC00F8
:101C80003C08CD00080020004F08CB005008CC00D5
:101C90005108CD0008002000530852045104031DD0
:101CA000582E0030D1000030D2000030D3000800A0
:101CB00053087F39D600D701D635D70D5608D4073B
:101CC0005708D53D520D520D0139D600D70156089F
:101CD000D4075708D53DD51F782E2230EE000030AE
:101CE000EF000030D1000030D2000030D3000800F7
:101CF0005508803AFF0081307F02031D812E00309D
:101D00005402031CB82E22302000EE000030EF00F9
:101D10005108A0005208A1005308A2000030A300FF
:101D20000030A4000030A5008C31B5248E3103189A
:101D3000B02EFF302000D8007F30D9007F30DA008D
:101D40005808F4005908F5005A08F6008031F220CE
:101D500074082000D1007508D2007608D30008006E
:101D6000FF302000D1007F30D2007F30D300080048
:101D700020005508D7005408D600570DD70CD60CB4
:101D80005308560680395606D30054080139D60048
:101D9000D60CD60C520856067F395606D2000800DB
:101DA00020003508B9003608BA003708BB00031018
:101DB0003A0D3B0DBC003C08C200C208031DE92ED1
:101DC0000030B8000030B7000030B6000030B50079
:101DD00008003508B9003608BA003708BB001730CC
:101DE000BB36BA0CB90C890BF02E3908BC003C0884
:101DF000BD00B617FF30B505FF30B6050030B7059A
:101E00003508BE003608BF003708C000C1018E305B
:101E1000C202C21F272F4208803A8F3E0318192F93
:101E20000030B8000030B7000030B6000030B50018
:101E300008000130C136C00CBF0CBE0C890B1A2F34
:101E40000130B9003908C2070319402F192F183083
:101E50004202031C3D2F0030B8000030B7000030B4
:101E6000B6000030B50008000130BE35BF0DC00D12
:101E7000C10D890B352F0130C202C208031D342F5A
:101E80003D0803194E2FBE09BF09C009C109BE0A8A
:101E90000319BF0A0319C00A0319C10A4108B8008F
:101EA0004008B7003F08B6003E08B5000800200013
:101EB0002808AB002908AC002A08AD0003102C0D3F
:101EC0002D0DAE002E08B300B308031D6E2F003099
:101ED000A5000030A6000030A70008002508AB00D0
:101EE0002608AC002708AD0003102C0D2D0DAE0008
:101EF0002E08B400B408031D842F0030A500003064
:101F0000A6000030A70008000030B0000030B1008B
:101F10000030B20089303407AB002B08B302280828
:101F2000AB002908AC002A08AD001030AD36AC0C6F
:101F3000AB0C890B962F2B08AE002E08B400250899
:101F4000AB002608AC002708AD001030AD36AC0C55
:101F5000AB0C890BA62F2B08AE002E08B4068030E0
:101F6000AB002B08B405A917FF30A805FF30A90561
:101F70000030AA05A617FF30A505FF30A6050030E2
:101F8000A7051830AB002B08AF000130B035B10DFC
:101F9000B20D890BC62F27082A02031DD52F26084C
:101FA0002902031DD52F25082802031CDE2F250832
:101FB000A8022608A93B2708AA3B30140130A835FF
:101FC000A90DAA0D890BDF2F0130AF02031DC52F0C
:101FD0003008A0003108A1003208A2003308AB008D
:101FE0002B08A3003408AC002C08A40080319120F9
:101FF00020002008A5002108A6002208A70008004C
:020000040001F9
:04000E00A4C9FFDDA5
:00000001FF
